:0B07A700EF1FAC0670011E4C70F62224
:10042000758920758DFD758BFDD28EC29FD29ED2AF
:100430009CE4F587D2AC438902758CA4758AA4D25A
:0A0440008CD2A9D28AD2AAD2AF2230
:10033100E513D394C840037513C8E513C39446501D
:1003410003751346E512D394C840037512C8E5122C
:10035100C394465003751246E510D395135004D249
:10036100958002C295E510C394C84003E4F510E5F9
:1003710014D395125004D2908002C290E514C39414
:07038100C84003E4F514225B
:1001D200E4F50C750D64750EB4750F0AC281120434
:1001E20020E511B47610B296E50C70047F0180020E
:1001F2007F008F0C8048E511B46D0DC2B37F887EFD
:10020200131207A7D2B38036E511B4680EB2817F0C
:10021200D07E071201C7B2810202AFE51164777086
:100222001FE50C700AE50D250FFDAF0D120016E556
:100232000CB4010AE50E250FFDAF0E120016806DFB
:10024200E5116461701FE50C700AE50D250FFDAF25
:100252000D120774E50CB4010AE50E250FFDAF0E71
:100262001207748048E5116464701FE50C700AE59A
:100272000D250FFDAF0D120781E50CB4010AE50E45
:10028200250FFDAF0E1207818023E51164737023E1
:10029200E50C700AE50D250FFDAF0D12078EE50C7A
:1002A200B4010AE50E250FFDAF0E12078EE4F5111B
:1002B2000201E3E511647060030201E31207B27FF9
:0C02C200887E131207A7E4F5110201E387
:0D0016008F138D12D294C293C292D2912208
:0D0774008F138D12C294D293C292D29122A3
:0D0781008F138D12D292C291D294C2932296
:0907B200C294C293C292C29122CA
:0D078E008F138D12D292C291C294D2932289
:03000B0002076485
:10076400C0E0C0D005100514120331D0D0D0E0325F
:030013000203885D
:10038800C0E0C0F0C083C082C0D075D000C000C03B
:0D03980001C002C003C004C005C006C007BC
:1003A50075080175092CB2977FE87E031201C720F5
:0503B500B3031202CEAB
:1003BA00D007D006D005D004D003D002D001D00097
:0B03CA00D0D0D082D083D0F0D0E03241
:03002300020003D5
:06000300859911C298323C
:100026007FF47E011204037FC47E091201C77FF4A8
:100036007E011204557FC47E091201C77F787E05B2
:100046001205037FC47E091201C77F787E0512055B
:10005600037FC47E091201C77F787E051205207FC3
:10006600C47E091201C77F787E051205207FC47EF3
:10007600091201C77F787E0512053D7FC47E0912ED
:1000860001C77F787E051205037FC47E091201C76A
:100096007FE87E031204557FF47E011204037FC4B9
:1000A6007E091201C77FF47E011204557FC47E09C2
:1000B6001201C77F787E051205037FC47E091201EF
:1000C600C77F787E051205037FC47E091201C77FAC
:1000D600787E051205207FC47E091201C77F787ECF
:1000E600051205207FC47E091201C77F787E05129E
:1000F600053D7FC47E091201C77FC47E0912050330
:100106007FC47E091201C77FF47E011204037FC4F7
:100116007E091201C77FF47E011204557FC47E0951
:100126001201C77F787E051205037FC47E0912017E
:10013600C77F787E051205037FC47E091201C77F3B
:10014600787E051205207FC47E091201C77F787E5E
:10015600051205207FC47E091201C77F787E05122D
:10016600053D7FC47E091201C77F787E051205030F
:100176007FC47E091201C77FE87E031204557FF40F
:100186007E011204037FC47E091201C77FF47E013B
:100196001204557FC47E091201C77F787E051205B9
:1001A600037FC47E091201C77F787E051205037F8F
:1001B600C47E091201C77F787E051205207FC47EA2
:0101C600092F
:0B01C700EF1FAC0670011E4C70F6220A
:04047200AB07AA0624
:10047600900000D3E5829BE5839A500CB2A27F6080
:080486007E001201C7A380EB08
:01048E00224B
:04048F00AB07AA0607
:10049300900000D3E5829BE5839A500CB2A27F556E
:0804A3007E001201C7A380EBEB
:0104AB00222E
:0404AC00AB07AA06EA
:1004B000900000D3E5829BE5839A500CB2A27F4C5A
:0804C0007E001201C7A380EBCE
:0104C8002211
:0404C900AB07AA06CD
:1004CD00900000D3E5829BE5839A500CB2A27F4841
:0804DD007E001201C7A380EBB1
:0104E50022F4
:0B044A007FE87E031205037FE87E03BD
:04045500AB07AA0641
:10045900900000D3E5829BE5839A500CB2A27F40BD
:080469007E001201C7A380EB25
:010471002268
:1003D5007FE87E0312055A7FE87E0312053D7FE81C
:1003E5007E031205037FB07E041204037FE87E03BB
:0E03F5001205037FE87E031205207FE87E03D9
:04040300AB07AA0693
:10040700900000D3E5829BE5839A500CB2A27F3916
:080417007E001201C7A380EB77
:01041F0022BA
:0404E600AB07AA06B0
:1004EA00900000D3E5829BE5839A500CB2A27F3339
:0804FA007E001201C7A380EB94
:0105020022D6
:04050300AB07AA0692
:10050700900000D3E5829BE5839A500CB2A27F301E
:080517007E001201C7A380EB76
:01051F0022B9
:04052000AB07AA0675
:10052400900000D3E5829BE5839A500CB2A27F2B06
:080534007E001201C7A380EB59
:01053C00229C
:04053D00AB07AA0658
:10054100900000D3E5829BE5839A500CB2A27F26EE
:080551007E001201C7A380EB3C
:01055900227F
:04055A00AB07AA063B
:10055E00900000D3E5829BE5839A500CB2A27F24D3
:08056E007E001201C7A380EB1F
:010576002262
:04057700AB07AA061E
:10057B00900000D3E5829BE5839A500CB2A27F20BA
:08058B007E001201C7A380EB02
:010593002245
:04059400AB07AA0601
:10059800900000D3E5829BE5839A500CB2A27F1CA1
:0805A8007E001201C7A380EBE5
:0105B0002228
:0405B100AB07AA06E4
:1005B500900000D3E5829BE5839A500CB2A27F1987
:0805C5007E001201C7A380EBC8
:0105CD00220B
:0405CE00AB07AA06C7
:1005D200900000D3E5829BE5839A500CB2A27FC0C3
:0805E2007E001201C7A380EBAB
:0105EA0022EE
:0405EB00AB07AA06AA
:1005EF00900000D3E5829BE5839A500CB2A27FAABC
:0805FF007E001201C7A380EB8E
:0106070022D0
:04060800AB07AA068C
:10060C00900000D3E5829BE5839A500CB2A27F98B0
:08061C007E001201C7A380EB70
:0106240022B3
:04062500AB07AA066F
:10062900900000D3E5829BE5839A500CB2A27F8F9C
:080639007E001201C7A380EB53
:010641002296
:04064200AB07AA0652
:10064600900000D3E5829BE5839A500CB2A27F808E
:080656007E001201C7A380EB36
:01065E002279
:04065F00AB07AA0635
:10066300900000D3E5829BE5839A500CB2A27F727F
:080673007E001201C7A380EB19
:01067B00225C
:04067C00AB07AA0618
:10068000900000D3E5829BE5839A500CB2A27F666E
:080690007E001201C7A380EBFC
:01069800223F
:04069900AB07AA06FB
:10069D00900000D3E5829BE5839A500CB2A27F8136
:0806AD007E011201C7A380EBDE
:0106B5002222
:0406B600AB07AA06DE
:1006BA00900000D3E5829BE5839A500CB2A27F5446
:0806CA007E011201C7A380EBC1
:0106D2002205
:0406D300AB07AA06C1
:1006D700900000D3E5829BE5839A500CB2A27F2F4E
:0806E7007E011201C7A380EBA4
:0106EF0022E8
:0406F000AB07AA06A4
:1006F400900000D3E5829BE5839A500CB2A27F1E42
:080704007E011201C7A380EB86
:01070C0022CA
:04070D00AB07AA0686
:10071100900000D3E5829BE5839A500CB2A27FFF43
:080721007E001201C7A380EB6A
:0107290022AD
:04072A00AB07AA0669
:10072E00900000D3E5829BE5839A500CB2A27FE342
:08073E007E001201C7A380EB4D
:010746002290
:04074700AB07AA064C
:10074B00900000D3E5829BE5839A500CB2A27FCA3E
:08075B007E001201C7A380EB30
:010763002273
:1002CE001200267FC47E091205037F507EC31201E1
:1002DE00C71200267FC47E091205037F507EC3120B
:1002EE0001C71203D57FDC7E051201C712044A1224
:1002FE0003FF7F787E051205031203D57FAC7E0DBA
:10030E001205031201C31203D512044A1203FF127F
:10031E00044A7FE87E031205037F147E0512048FC4
:03032E000202CEFA
:0300000002079B59
:0C079B00787FE4F6D8FD7581140201D2CD
:00000001FF
